{
  "contractName": "Donation",
  "abi": [
    {
      "inputs": [
        {
          "internalType": "uint256",
          "name": "_uid",
          "type": "uint256"
        },
        {
          "internalType": "string",
          "name": "_name",
          "type": "string"
        },
        {
          "internalType": "uint256",
          "name": "_age",
          "type": "uint256"
        },
        {
          "internalType": "enum Donation.Sex",
          "name": "_gender",
          "type": "uint8"
        },
        {
          "internalType": "string",
          "name": "_location",
          "type": "string"
        }
      ],
      "name": "setPatient",
      "outputs": [],
      "stateMutability": "nonpayable",
      "type": "function"
    },
    {
      "inputs": [
        {
          "internalType": "uint256",
          "name": "_uid",
          "type": "uint256"
        },
        {
          "internalType": "uint256",
          "name": "_patientCount",
          "type": "uint256"
        }
      ],
      "name": "getPatient",
      "outputs": [
        {
          "internalType": "uint256",
          "name": "",
          "type": "uint256"
        },
        {
          "internalType": "string",
          "name": "",
          "type": "string"
        },
        {
          "internalType": "uint256",
          "name": "",
          "type": "uint256"
        },
        {
          "internalType": "enum Donation.Sex",
          "name": "",
          "type": "uint8"
        },
        {
          "internalType": "string",
          "name": "",
          "type": "string"
        }
      ],
      "stateMutability": "view",
      "type": "function",
      "constant": true
    },
    {
      "inputs": [
        {
          "internalType": "uint256",
          "name": "_uid",
          "type": "uint256"
        },
        {
          "internalType": "string",
          "name": "_name",
          "type": "string"
        },
        {
          "internalType": "string",
          "name": "_hospital",
          "type": "string"
        },
        {
          "internalType": "string",
          "name": "_doctor",
          "type": "string"
        },
        {
          "internalType": "uint256",
          "name": "_slNo",
          "type": "uint256"
        },
        {
          "internalType": "string",
          "name": "_date",
          "type": "string"
        }
      ],
      "name": "setDonationData",
      "outputs": [],
      "stateMutability": "nonpayable",
      "type": "function"
    },
    {
      "inputs": [
        {
          "internalType": "uint256",
          "name": "_uid",
          "type": "uint256"
        },
        {
          "internalType": "uint256",
          "name": "_donationCount",
          "type": "uint256"
        }
      ],
      "name": "getData",
      "outputs": [
        {
          "internalType": "uint256",
          "name": "",
          "type": "uint256"
        },
        {
          "internalType": "string",
          "name": "",
          "type": "string"
        },
        {
          "internalType": "string",
          "name": "",
          "type": "string"
        },
        {
          "internalType": "string",
          "name": "",
          "type": "string"
        },
        {
          "internalType": "uint256",
          "name": "",
          "type": "uint256"
        },
        {
          "internalType": "string",
          "name": "",
          "type": "string"
        }
      ],
      "stateMutability": "view",
      "type": "function",
      "constant": true
    }
  ],
  "bytecode": "0x608060405234801561001057600080fd5b50610fc4806100206000396000f3fe608060405234801561001057600080fd5b506004361061004c5760003560e01c806331fa76c2146100515780634e4fe3061461006d578063a1df2fd5146100a2578063c49213ed146100be575b600080fd5b61006b60048036038101906100669190610acd565b6100f2565b005b61008760048036038101906100829190610b80565b610213565b60405161009996959493929190610c57565b60405180910390f35b6100bc60048036038101906100b79190610cd4565b610550565b005b6100d860048036038101906100d39190610b80565b610672565b6040516100e9959493929190610e48565b60405180910390f35b600180600087815260200190815260200160002060008282546101159190610ed8565b925050819055506040518060a0016040528086815260200185815260200184815260200183600281111561014c5761014b610dd1565b5b8152602001828152506000808781526020019081526020016000206000600160008981526020019081526020016000205481526020019081526020016000206000820151816000015560208201518160010190805190602001906101b1929190610875565b506040820151816002015560608201518160030160006101000a81548160ff021916908360028111156101e7576101e6610dd1565b5b02179055506080820151816004019080519060200190610208929190610875565b509050505050505050565b600060608060606000606060026000898152602001908152602001600020600088815260200190815260200160002060000154600260008a81526020019081526020016000206000898152602001908152602001600020600101600260008b815260200190815260200160002060008a8152602001908152602001600020600201600260008c815260200190815260200160002060008b8152602001908152602001600020600301600260008d815260200190815260200160002060008c815260200190815260200160002060040154600260008e815260200190815260200160002060008d815260200190815260200160002060050184805461031690610f5d565b80601f016020809104026020016040519081016040528092919081815260200182805461034290610f5d565b801561038f5780601f106103645761010080835404028352916020019161038f565b820191906000526020600020905b81548152906001019060200180831161037257829003601f168201915b505050505094508380546103a290610f5d565b80601f01602080910402602001604051908101604052809291908181526020018280546103ce90610f5d565b801561041b5780601f106103f05761010080835404028352916020019161041b565b820191906000526020600020905b8154815290600101906020018083116103fe57829003601f168201915b5050505050935082805461042e90610f5d565b80601f016020809104026020016040519081016040528092919081815260200182805461045a90610f5d565b80156104a75780601f1061047c576101008083540402835291602001916104a7565b820191906000526020600020905b81548152906001019060200180831161048a57829003601f168201915b505050505092508080546104ba90610f5d565b80601f01602080910402602001604051908101604052809291908181526020018280546104e690610f5d565b80156105335780601f1061050857610100808354040283529160200191610533565b820191906000526020600020905b81548152906001019060200180831161051657829003601f168201915b505050505090509550955095509550955095509295509295509295565b60016003600088815260200190815260200160002060008282546105749190610ed8565b925050819055506040518060c0016040528087815260200186815260200185815260200184815260200183815260200182815250600260008881526020019081526020016000206000600360008a8152602001908152602001600020548152602001908152602001600020600082015181600001556020820151816001019080519060200190610605929190610875565b506040820151816002019080519060200190610622929190610875565b50606082015181600301908051906020019061063f929190610875565b506080820151816004015560a0820151816005019080519060200190610666929190610875565b50905050505050505050565b60006060600080606060008088815260200190815260200160002060008781526020019081526020016000206000015460008089815260200190815260200160002060008881526020019081526020016000206001016000808a81526020019081526020016000206000898152602001908152602001600020600201546000808b815260200190815260200160002060008a815260200190815260200160002060030160009054906101000a900460ff166000808c815260200190815260200160002060008b815260200190815260200160002060040183805461075590610f5d565b80601f016020809104026020016040519081016040528092919081815260200182805461078190610f5d565b80156107ce5780601f106107a3576101008083540402835291602001916107ce565b820191906000526020600020905b8154815290600101906020018083116107b157829003601f168201915b505050505093508080546107e190610f5d565b80601f016020809104026020016040519081016040528092919081815260200182805461080d90610f5d565b801561085a5780601f1061082f5761010080835404028352916020019161085a565b820191906000526020600020905b81548152906001019060200180831161083d57829003601f168201915b50505050509050945094509450945094509295509295909350565b82805461088190610f5d565b90600052602060002090601f0160209004810192826108a357600085556108ea565b82601f106108bc57805160ff19168380011785556108ea565b828001600101855582156108ea579182015b828111156108e95782518255916020019190600101906108ce565b5b5090506108f791906108fb565b5090565b5b808211156109145760008160009055506001016108fc565b5090565b6000604051905090565b600080fd5b600080fd5b6000819050919050565b61093f8161092c565b811461094a57600080fd5b50565b60008135905061095c81610936565b92915050565b600080fd5b600080fd5b6000601f19601f8301169050919050565b7f4e487b7100000000000000000000000000000000000000000000000000000000600052604160045260246000fd5b6109b58261096c565b810181811067ffffffffffffffff821117156109d4576109d361097d565b5b80604052505050565b60006109e7610918565b90506109f382826109ac565b919050565b600067ffffffffffffffff821115610a1357610a1261097d565b5b610a1c8261096c565b9050602081019050919050565b82818337600083830152505050565b6000610a4b610a46846109f8565b6109dd565b905082815260208101848484011115610a6757610a66610967565b5b610a72848285610a29565b509392505050565b600082601f830112610a8f57610a8e610962565b5b8135610a9f848260208601610a38565b91505092915050565b60038110610ab557600080fd5b50565b600081359050610ac781610aa8565b92915050565b600080600080600060a08688031215610ae957610ae8610922565b5b6000610af78882890161094d565b955050602086013567ffffffffffffffff811115610b1857610b17610927565b5b610b2488828901610a7a565b9450506040610b358882890161094d565b9350506060610b4688828901610ab8565b925050608086013567ffffffffffffffff811115610b6757610b66610927565b5b610b7388828901610a7a565b9150509295509295909350565b60008060408385031215610b9757610b96610922565b5b6000610ba58582860161094d565b9250506020610bb68582860161094d565b9150509250929050565b610bc98161092c565b82525050565b600081519050919050565b600082825260208201905092915050565b60005b83811015610c09578082015181840152602081019050610bee565b83811115610c18576000848401525b50505050565b6000610c2982610bcf565b610c338185610bda565b9350610c43818560208601610beb565b610c4c8161096c565b840191505092915050565b600060c082019050610c6c6000830189610bc0565b8181036020830152610c7e8188610c1e565b90508181036040830152610c928187610c1e565b90508181036060830152610ca68186610c1e565b9050610cb56080830185610bc0565b81810360a0830152610cc78184610c1e565b9050979650505050505050565b60008060008060008060c08789031215610cf157610cf0610922565b5b6000610cff89828a0161094d565b965050602087013567ffffffffffffffff811115610d2057610d1f610927565b5b610d2c89828a01610a7a565b955050604087013567ffffffffffffffff811115610d4d57610d4c610927565b5b610d5989828a01610a7a565b945050606087013567ffffffffffffffff811115610d7a57610d79610927565b5b610d8689828a01610a7a565b9350506080610d9789828a0161094d565b92505060a087013567ffffffffffffffff811115610db857610db7610927565b5b610dc489828a01610a7a565b9150509295509295509295565b7f4e487b7100000000000000000000000000000000000000000000000000000000600052602160045260246000fd5b60038110610e1157610e10610dd1565b5b50565b6000819050610e2282610e00565b919050565b6000610e3282610e14565b9050919050565b610e4281610e27565b82525050565b600060a082019050610e5d6000830188610bc0565b8181036020830152610e6f8187610c1e565b9050610e7e6040830186610bc0565b610e8b6060830185610e39565b8181036080830152610e9d8184610c1e565b90509695505050505050565b7f4e487b7100000000000000000000000000000000000000000000000000000000600052601160045260246000fd5b6000610ee38261092c565b9150610eee8361092c565b9250827fffffffffffffffffffffffffffffffffffffffffffffffffffffffffffffffff03821115610f2357610f22610ea9565b5b828201905092915050565b7f4e487b7100000000000000000000000000000000000000000000000000000000600052602260045260246000fd5b60006002820490506001821680610f7557607f821691505b602082108103610f8857610f87610f2e565b5b5091905056fea2646970667358221220d5309ea57762382fa9e0027a7b59c46e7e1244594d9577a73c89ab081ad2fcc664736f6c634300080d0033",
  "immutableReferences": {},
  "source": "\n// pragma solidity >=0.4.22 <0.9.0;\n\n// contract Donation {\n//     //enum for gender\n//     enum Sex {male, female, other}\n\n//     // struct for saving the data of patient\n//     struct patientData {\n//         uint256 uid;\n//         string name;\n//         uint256 age;\n//         Sex gender;\n//         string location;\n//     }\n\n//     //mapping to retrieve patient data stored in the blockchian\n//     mapping(uint256 => mapping(uint256 => patientData)) private pData;\n//     // Iterable variable declaration for patient data count\n//     mapping(uint256 => uint256) patientCount;\n\n//     //function to set patient data\n//     function setPatient(\n//         uint256 _uid,\n//         string memory _name,\n//         uint256 _age,\n//         Sex _gender,\n//         string memory _location\n//     ) public {\n//         patientCount[_uid] += 1;\n//         pData[_uid][patientCount[_uid]] = patientData(\n//             _uid,\n//             _name,\n//             _age,\n//             _gender,\n//             _location\n//         );\n//     }\n\n//     // function to retrieve data of patient from blockchain\n//     function getPatient(uint256 _uid, uint256 _patientCount)\n//         public\n//         view\n//         returns (\n//             uint256,\n//             string memory,\n//             uint256,\n//             Sex,\n//             string memory\n//         )\n//     {\n//         return (\n//             pData[_uid][_patientCount].uid,\n//             pData[_uid][_patientCount].name,\n//             pData[_uid][_patientCount].age,\n//             pData[_uid][_patientCount].gender,\n//             pData[_uid][_patientCount].location\n//         );\n//     }\n\n//     //mapping to retrieve Donation data stored in the blockchian\n//     mapping(uint256 => mapping(uint256 => string)) private donationData;\n//     // Iterable variable declaration for Donation data count\n//     mapping(uint256 => uint256) donationCount;\n\n//     //function to set Donaiton data\n//     function setDonationData(uint256 _uid, string memory _donationData) public {\n//         donationCount[_uid] += 1;\n//         donationData[_uid][donationCount[_uid]] = _donationData;\n//     }\n\n//     // function to retrieve Donation data from blockchain\n//     function getData(uint256 _uid, uint256 _donationCount)\n//         public\n//         view\n//         returns (string memory)\n//     {\n//         return donationData[_uid][_donationCount];\n//     }\n// }\n\n// SPDX-License-Identifier: GPL-3.0\npragma solidity >=0.4.22 <0.9.0;\n\ncontract Donation {\n    //enum for gender\n    enum Sex {male, female, other}\n\n    // struct for saving the data of patient\n    struct patientData {\n        uint256 uid;\n        string name;\n        uint256 age;\n        Sex gender;\n        string location;\n    }\n\n    //mapping to retrieve patient data stored in the blockchian\n    mapping(uint256 => mapping(uint256 => patientData)) private pData;\n    // Iterable variable declaration for patient data count\n    mapping(uint256 => uint256) patientCount;\n\n    //function to set patient data\n    function setPatient(\n        uint256 _uid,\n        string memory _name,\n        uint256 _age,\n        Sex _gender,\n        string memory _location\n    ) public {\n        patientCount[_uid] += 1;\n        pData[_uid][patientCount[_uid]] = patientData(\n            _uid,\n            _name,\n            _age,\n            _gender,\n            _location\n        );\n    }\n\n    // function to retrieve data of patient from blockchain\n    function getPatient(uint256 _uid, uint256 _patientCount)\n        public\n        view\n        returns (\n            uint256,\n            string memory,\n            uint256,\n            Sex,\n            string memory\n        )\n    {\n        return (\n            pData[_uid][_patientCount].uid,\n            pData[_uid][_patientCount].name,\n            pData[_uid][_patientCount].age,\n            pData[_uid][_patientCount].gender,\n            pData[_uid][_patientCount].location\n        );\n    }\n\n\n  struct donationData {\n        uint256 uid;\n        string name;\n        string hospital;\n        string doctor;\n        uint256 slNo;\n        string date;\n    }\n    //mapping to retrieve Donation data stored in the blockchian\n    mapping(uint256 => mapping(uint256 => donationData)) private dData;\n    // Iterable variable declaration for Donation data count\n    mapping(uint256 => uint256) donationCount;\n\n    //function to set Donaiton data\n    // function setDonationData(uint256 _uid, string memory _donationData) public {\n    //     donationCount[_uid] += 1;\n    //     donationData[_uid][donationCount[_uid]] = _donationData;\n    // }  \n    function setDonationData(\n        uint256 _uid,\n        string memory _name,\n        string memory _hospital,\n        string memory _doctor,\n        uint256 _slNo,\n        string memory _date\n    ) public {\n        donationCount[_uid] += 1;\n        dData[_uid][donationCount[_uid]] = donationData(\n            _uid,\n            _name,\n            _hospital,\n            _doctor,\n            _slNo,\n            _date\n        );\n    }\n    // function to retrieve Donation data from blockchain\n    // function getData(uint256 _uid, uint256 _donationCount)\n    //     public\n    //     view\n    //     returns (string memory)\n         function getData(uint256 _uid, uint256 _donationCount)\n        public\n        view\n        returns (uint256, string memory, string memory, string memory, uint256, string memory)\n    {\n        // return donationData[_uid][_donationCount];\n         return (\n            dData[_uid][_donationCount].uid,\n            dData[_uid][_donationCount].name,\n            dData[_uid][_donationCount].hospital,\n            dData[_uid][_donationCount].doctor,\n            dData[_uid][_donationCount].slNo,\n            dData[_uid][_donationCount].date\n        );\n    }\n    \n}",
  "sourcePath": "/home/neethu/EthLab/Express-Donation-Dapp/contracts/Donations.sol",
  "compiler": {
    "name": "solc",
    "version": "0.8.13+commit.abaa5c0e.Emscripten.clang"
  },
  "schemaVersion": "3.4.7",
  "updatedAt": "2022-08-30T13:18:59.523Z",
  "networkType": "ethereum",
  "devdoc": {
    "kind": "dev",
    "methods": {},
    "version": 1
  },
  "userdoc": {
    "kind": "user",
    "methods": {},
    "version": 1
  }
}