{
  "contractName": "Donation",
  "abi": [
    {
      "inputs": [
        {
          "internalType": "uint256",
          "name": "_uid",
          "type": "uint256"
        },
        {
          "internalType": "string",
          "name": "_name",
          "type": "string"
        },
        {
          "internalType": "uint256",
          "name": "_age",
          "type": "uint256"
        },
        {
          "internalType": "enum Donation.Sex",
          "name": "_gender",
          "type": "uint8"
        },
        {
          "internalType": "string",
          "name": "_location",
          "type": "string"
        }
      ],
      "name": "setPatient",
      "outputs": [],
      "stateMutability": "nonpayable",
      "type": "function"
    },
    {
      "inputs": [
        {
          "internalType": "uint256",
          "name": "_uid",
          "type": "uint256"
        },
        {
          "internalType": "uint256",
          "name": "_patientCount",
          "type": "uint256"
        }
      ],
      "name": "getPatient",
      "outputs": [
        {
          "internalType": "uint256",
          "name": "",
          "type": "uint256"
        },
        {
          "internalType": "string",
          "name": "",
          "type": "string"
        },
        {
          "internalType": "uint256",
          "name": "",
          "type": "uint256"
        },
        {
          "internalType": "enum Donation.Sex",
          "name": "",
          "type": "uint8"
        },
        {
          "internalType": "string",
          "name": "",
          "type": "string"
        }
      ],
      "stateMutability": "view",
      "type": "function"
    },
    {
      "inputs": [
        {
          "internalType": "uint256",
          "name": "_uid",
          "type": "uint256"
        },
        {
          "internalType": "string",
          "name": "_donationData",
          "type": "string"
        }
      ],
      "name": "setDonationData",
      "outputs": [],
      "stateMutability": "nonpayable",
      "type": "function"
    },
    {
      "inputs": [
        {
          "internalType": "uint256",
          "name": "_uid",
          "type": "uint256"
        },
        {
          "internalType": "uint256",
          "name": "_donationCount",
          "type": "uint256"
        }
      ],
      "name": "getData",
      "outputs": [
        {
          "internalType": "string",
          "name": "",
          "type": "string"
        }
      ],
      "stateMutability": "view",
      "type": "function"
    }
  ],
  "bytecode": "0x608060405234801561001057600080fd5b50610b96806100206000396000f3fe608060405234801561001057600080fd5b506004361061004c5760003560e01c806331fa76c2146100515780634e4fe3061461006d578063c49213ed1461009d578063e685a794146100d1575b600080fd5b61006b6004803603810190610066919061079b565b6100ed565b005b6100876004803603810190610082919061084e565b61020e565b6040516100949190610916565b60405180910390f35b6100b760048036038101906100b2919061084e565b6102c5565b6040516100c89594939291906109be565b60405180910390f35b6100eb60048036038101906100e69190610a1f565b6104c8565b005b600180600087815260200190815260200160002060008282546101109190610aaa565b925050819055506040518060a0016040528086815260200185815260200184815260200183600281111561014757610146610947565b5b8152602001828152506000808781526020019081526020016000206000600160008981526020019081526020016000205481526020019081526020016000206000820151816000015560208201518160010190805190602001906101ac929190610543565b506040820151816002015560608201518160030160006101000a81548160ff021916908360028111156101e2576101e1610947565b5b02179055506080820151816004019080519060200190610203929190610543565b509050505050505050565b6060600260008481526020019081526020016000206000838152602001908152602001600020805461023f90610b2f565b80601f016020809104026020016040519081016040528092919081815260200182805461026b90610b2f565b80156102b85780601f1061028d576101008083540402835291602001916102b8565b820191906000526020600020905b81548152906001019060200180831161029b57829003601f168201915b5050505050905092915050565b60006060600080606060008088815260200190815260200160002060008781526020019081526020016000206000015460008089815260200190815260200160002060008881526020019081526020016000206001016000808a81526020019081526020016000206000898152602001908152602001600020600201546000808b815260200190815260200160002060008a815260200190815260200160002060030160009054906101000a900460ff166000808c815260200190815260200160002060008b81526020019081526020016000206004018380546103a890610b2f565b80601f01602080910402602001604051908101604052809291908181526020018280546103d490610b2f565b80156104215780601f106103f657610100808354040283529160200191610421565b820191906000526020600020905b81548152906001019060200180831161040457829003601f168201915b5050505050935080805461043490610b2f565b80601f016020809104026020016040519081016040528092919081815260200182805461046090610b2f565b80156104ad5780601f10610482576101008083540402835291602001916104ad565b820191906000526020600020905b81548152906001019060200180831161049057829003601f168201915b50505050509050945094509450945094509295509295909350565b60016003600084815260200190815260200160002060008282546104ec9190610aaa565b925050819055508060026000848152602001908152602001600020600060036000868152602001908152602001600020548152602001908152602001600020908051906020019061053e929190610543565b505050565b82805461054f90610b2f565b90600052602060002090601f01602090048101928261057157600085556105b8565b82601f1061058a57805160ff19168380011785556105b8565b828001600101855582156105b8579182015b828111156105b757825182559160200191906001019061059c565b5b5090506105c591906105c9565b5090565b5b808211156105e25760008160009055506001016105ca565b5090565b6000604051905090565b600080fd5b600080fd5b6000819050919050565b61060d816105fa565b811461061857600080fd5b50565b60008135905061062a81610604565b92915050565b600080fd5b600080fd5b6000601f19601f8301169050919050565b7f4e487b7100000000000000000000000000000000000000000000000000000000600052604160045260246000fd5b6106838261063a565b810181811067ffffffffffffffff821117156106a2576106a161064b565b5b80604052505050565b60006106b56105e6565b90506106c1828261067a565b919050565b600067ffffffffffffffff8211156106e1576106e061064b565b5b6106ea8261063a565b9050602081019050919050565b82818337600083830152505050565b6000610719610714846106c6565b6106ab565b90508281526020810184848401111561073557610734610635565b5b6107408482856106f7565b509392505050565b600082601f83011261075d5761075c610630565b5b813561076d848260208601610706565b91505092915050565b6003811061078357600080fd5b50565b60008135905061079581610776565b92915050565b600080600080600060a086880312156107b7576107b66105f0565b5b60006107c58882890161061b565b955050602086013567ffffffffffffffff8111156107e6576107e56105f5565b5b6107f288828901610748565b94505060406108038882890161061b565b935050606061081488828901610786565b925050608086013567ffffffffffffffff811115610835576108346105f5565b5b61084188828901610748565b9150509295509295909350565b60008060408385031215610865576108646105f0565b5b60006108738582860161061b565b92505060206108848582860161061b565b9150509250929050565b600081519050919050565b600082825260208201905092915050565b60005b838110156108c85780820151818401526020810190506108ad565b838111156108d7576000848401525b50505050565b60006108e88261088e565b6108f28185610899565b93506109028185602086016108aa565b61090b8161063a565b840191505092915050565b6000602082019050818103600083015261093081846108dd565b905092915050565b610941816105fa565b82525050565b7f4e487b7100000000000000000000000000000000000000000000000000000000600052602160045260246000fd5b6003811061098757610986610947565b5b50565b600081905061099882610976565b919050565b60006109a88261098a565b9050919050565b6109b88161099d565b82525050565b600060a0820190506109d36000830188610938565b81810360208301526109e581876108dd565b90506109f46040830186610938565b610a0160608301856109af565b8181036080830152610a1381846108dd565b90509695505050505050565b60008060408385031215610a3657610a356105f0565b5b6000610a448582860161061b565b925050602083013567ffffffffffffffff811115610a6557610a646105f5565b5b610a7185828601610748565b9150509250929050565b7f4e487b7100000000000000000000000000000000000000000000000000000000600052601160045260246000fd5b6000610ab5826105fa565b9150610ac0836105fa565b9250827fffffffffffffffffffffffffffffffffffffffffffffffffffffffffffffffff03821115610af557610af4610a7b565b5b828201905092915050565b7f4e487b7100000000000000000000000000000000000000000000000000000000600052602260045260246000fd5b60006002820490506001821680610b4757607f821691505b602082108103610b5a57610b59610b00565b5b5091905056fea26469706673582212200c69d9f53359657b79895cff1127c2d6d21472fae47322f38a5a84b8c02190cb64736f6c634300080d0033",
  "immutableReferences": {},
  "source": "// SPDX-License-Identifier: GPL-3.0\npragma solidity >=0.4.22 <0.9.0;\n\ncontract Donation {\n    //enum for gender\n    enum Sex {male, female, other}\n\n    // struct for saving the data of patient\n    struct patientData {\n        uint256 uid;\n        string name;\n        uint256 age;\n        Sex gender;\n        string location;\n    }\n\n    //mapping to retrieve patient data stored in the blockchian\n    mapping(uint256 => mapping(uint256 => patientData)) private pData;\n    // Iterable variable declaration for patient data count\n    mapping(uint256 => uint256) patientCount;\n\n    //function to set patient data\n    function setPatient(\n        uint256 _uid,\n        string memory _name,\n        uint256 _age,\n        Sex _gender,\n        string memory _location\n    ) public {\n        patientCount[_uid] += 1;\n        pData[_uid][patientCount[_uid]] = patientData(\n            _uid,\n            _name,\n            _age,\n            _gender,\n            _location\n        );\n    }\n\n    // function to retrieve data of patient from blockchain\n    function getPatient(uint256 _uid, uint256 _patientCount)\n        public\n        view\n        returns (\n            uint256,\n            string memory,\n            uint256,\n            Sex,\n            string memory\n        )\n    {\n        return (\n            pData[_uid][_patientCount].uid,\n            pData[_uid][_patientCount].name,\n            pData[_uid][_patientCount].age,\n            pData[_uid][_patientCount].gender,\n            pData[_uid][_patientCount].location\n        );\n    }\n\n    //mapping to retrieve Donation data stored in the blockchian\n    mapping(uint256 => mapping(uint256 => string)) private donationData;\n    // Iterable variable declaration for Donation data count\n    mapping(uint256 => uint256) donationCount;\n\n    //function to set Donaiton data\n    function setDonationData(uint256 _uid, string memory _donationData) public {\n        donationCount[_uid] += 1;\n        donationData[_uid][donationCount[_uid]] = _donationData;\n    }\n\n    // function to retrieve Donation data from blockchain\n    function getData(uint256 _uid, uint256 _donationCount)\n        public\n        view\n        returns (string memory)\n    {\n        return donationData[_uid][_donationCount];\n    }\n}\n",
  "sourcePath": "/home/neethu/EthLab/Express-Certificate-Dapp/contracts/Donations.sol",
  "compiler": {
    "name": "solc",
    "version": "0.8.13+commit.abaa5c0e.Emscripten.clang"
  },
  "schemaVersion": "3.4.7",
  "updatedAt": "2022-08-23T17:03:40.218Z",
  "devdoc": {
    "kind": "dev",
    "methods": {},
    "version": 1
  },
  "userdoc": {
    "kind": "user",
    "methods": {},
    "version": 1
  }
}