{
  "contractName": "Donation",
  "abi": [
    {
      "inputs": [
        {
          "internalType": "uint256",
          "name": "_uid",
          "type": "uint256"
        },
        {
          "internalType": "string",
          "name": "_name",
          "type": "string"
        },
        {
          "internalType": "uint256",
          "name": "_age",
          "type": "uint256"
        },
        {
          "internalType": "enum Donation.Sex",
          "name": "_gender",
          "type": "uint8"
        },
        {
          "internalType": "string",
          "name": "_location",
          "type": "string"
        }
      ],
      "name": "setPatient",
      "outputs": [],
      "stateMutability": "nonpayable",
      "type": "function"
    },
    {
      "inputs": [
        {
          "internalType": "uint256",
          "name": "_uid",
          "type": "uint256"
        },
        {
          "internalType": "uint256",
          "name": "_patientCount",
          "type": "uint256"
        }
      ],
      "name": "getPatient",
      "outputs": [
        {
          "internalType": "uint256",
          "name": "",
          "type": "uint256"
        },
        {
          "internalType": "string",
          "name": "",
          "type": "string"
        },
        {
          "internalType": "uint256",
          "name": "",
          "type": "uint256"
        },
        {
          "internalType": "enum Donation.Sex",
          "name": "",
          "type": "uint8"
        },
        {
          "internalType": "string",
          "name": "",
          "type": "string"
        }
      ],
      "stateMutability": "view",
      "type": "function",
      "constant": true
    },
    {
      "inputs": [
        {
          "internalType": "uint256",
          "name": "_uid",
          "type": "uint256"
        },
        {
          "internalType": "string",
          "name": "_name",
          "type": "string"
        },
        {
          "internalType": "string",
          "name": "_hospital",
          "type": "string"
        },
        {
          "internalType": "string",
          "name": "_doctor",
          "type": "string"
        },
        {
          "internalType": "uint256",
          "name": "_slNo",
          "type": "uint256"
        },
        {
          "internalType": "string",
          "name": "_date",
          "type": "string"
        }
      ],
      "name": "setDonationData",
      "outputs": [],
      "stateMutability": "nonpayable",
      "type": "function"
    },
    {
      "inputs": [
        {
          "internalType": "uint256",
          "name": "_uid",
          "type": "uint256"
        },
        {
          "internalType": "uint256",
          "name": "_donationCount",
          "type": "uint256"
        }
      ],
      "name": "getData",
      "outputs": [
        {
          "internalType": "uint256",
          "name": "",
          "type": "uint256"
        },
        {
          "internalType": "string",
          "name": "",
          "type": "string"
        },
        {
          "internalType": "string",
          "name": "",
          "type": "string"
        },
        {
          "internalType": "string",
          "name": "",
          "type": "string"
        },
        {
          "internalType": "uint256",
          "name": "",
          "type": "uint256"
        }
      ],
      "stateMutability": "view",
      "type": "function",
      "constant": true
    }
  ],
  "bytecode": "0x608060405234801561001057600080fd5b50610ef7806100206000396000f3fe608060405234801561001057600080fd5b506004361061004c5760003560e01c806331fa76c2146100515780634e4fe3061461006d578063a1df2fd5146100a1578063c49213ed146100bd575b600080fd5b61006b60048036038101906100669190610a15565b6100f1565b005b61008760048036038101906100829190610ac8565b610212565b604051610098959493929190610b9f565b60405180910390f35b6100bb60048036038101906100b69190610c07565b610498565b005b6100d760048036038101906100d29190610ac8565b6105ba565b6040516100e8959493929190610d7b565b60405180910390f35b600180600087815260200190815260200160002060008282546101149190610e0b565b925050819055506040518060a0016040528086815260200185815260200184815260200183600281111561014b5761014a610d04565b5b8152602001828152506000808781526020019081526020016000206000600160008981526020019081526020016000205481526020019081526020016000206000820151816000015560208201518160010190805190602001906101b09291906107bd565b506040820151816002015560608201518160030160006101000a81548160ff021916908360028111156101e6576101e5610d04565b5b021790555060808201518160040190805190602001906102079291906107bd565b509050505050505050565b60006060806060600060026000888152602001908152602001600020600087815260200190815260200160002060000154600260008981526020019081526020016000206000888152602001908152602001600020600101600260008a81526020019081526020016000206000898152602001908152602001600020600201600260008b815260200190815260200160002060008a8152602001908152602001600020600301600260008c815260200190815260200160002060008b8152602001908152602001600020600401548380546102ec90610e90565b80601f016020809104026020016040519081016040528092919081815260200182805461031890610e90565b80156103655780601f1061033a57610100808354040283529160200191610365565b820191906000526020600020905b81548152906001019060200180831161034857829003601f168201915b5050505050935082805461037890610e90565b80601f01602080910402602001604051908101604052809291908181526020018280546103a490610e90565b80156103f15780601f106103c6576101008083540402835291602001916103f1565b820191906000526020600020905b8154815290600101906020018083116103d457829003601f168201915b5050505050925081805461040490610e90565b80601f016020809104026020016040519081016040528092919081815260200182805461043090610e90565b801561047d5780601f106104525761010080835404028352916020019161047d565b820191906000526020600020905b81548152906001019060200180831161046057829003601f168201915b50505050509150945094509450945094509295509295909350565b60016003600088815260200190815260200160002060008282546104bc9190610e0b565b925050819055506040518060c0016040528087815260200186815260200185815260200184815260200183815260200182815250600260008881526020019081526020016000206000600360008a815260200190815260200160002054815260200190815260200160002060008201518160000155602082015181600101908051906020019061054d9291906107bd565b50604082015181600201908051906020019061056a9291906107bd565b5060608201518160030190805190602001906105879291906107bd565b506080820151816004015560a08201518160050190805190602001906105ae9291906107bd565b50905050505050505050565b60006060600080606060008088815260200190815260200160002060008781526020019081526020016000206000015460008089815260200190815260200160002060008881526020019081526020016000206001016000808a81526020019081526020016000206000898152602001908152602001600020600201546000808b815260200190815260200160002060008a815260200190815260200160002060030160009054906101000a900460ff166000808c815260200190815260200160002060008b815260200190815260200160002060040183805461069d90610e90565b80601f01602080910402602001604051908101604052809291908181526020018280546106c990610e90565b80156107165780601f106106eb57610100808354040283529160200191610716565b820191906000526020600020905b8154815290600101906020018083116106f957829003601f168201915b5050505050935080805461072990610e90565b80601f016020809104026020016040519081016040528092919081815260200182805461075590610e90565b80156107a25780601f10610777576101008083540402835291602001916107a2565b820191906000526020600020905b81548152906001019060200180831161078557829003601f168201915b50505050509050945094509450945094509295509295909350565b8280546107c990610e90565b90600052602060002090601f0160209004810192826107eb5760008555610832565b82601f1061080457805160ff1916838001178555610832565b82800160010185558215610832579182015b82811115610831578251825591602001919060010190610816565b5b50905061083f9190610843565b5090565b5b8082111561085c576000816000905550600101610844565b5090565b6000604051905090565b600080fd5b600080fd5b6000819050919050565b61088781610874565b811461089257600080fd5b50565b6000813590506108a48161087e565b92915050565b600080fd5b600080fd5b6000601f19601f8301169050919050565b7f4e487b7100000000000000000000000000000000000000000000000000000000600052604160045260246000fd5b6108fd826108b4565b810181811067ffffffffffffffff8211171561091c5761091b6108c5565b5b80604052505050565b600061092f610860565b905061093b82826108f4565b919050565b600067ffffffffffffffff82111561095b5761095a6108c5565b5b610964826108b4565b9050602081019050919050565b82818337600083830152505050565b600061099361098e84610940565b610925565b9050828152602081018484840111156109af576109ae6108af565b5b6109ba848285610971565b509392505050565b600082601f8301126109d7576109d66108aa565b5b81356109e7848260208601610980565b91505092915050565b600381106109fd57600080fd5b50565b600081359050610a0f816109f0565b92915050565b600080600080600060a08688031215610a3157610a3061086a565b5b6000610a3f88828901610895565b955050602086013567ffffffffffffffff811115610a6057610a5f61086f565b5b610a6c888289016109c2565b9450506040610a7d88828901610895565b9350506060610a8e88828901610a00565b925050608086013567ffffffffffffffff811115610aaf57610aae61086f565b5b610abb888289016109c2565b9150509295509295909350565b60008060408385031215610adf57610ade61086a565b5b6000610aed85828601610895565b9250506020610afe85828601610895565b9150509250929050565b610b1181610874565b82525050565b600081519050919050565b600082825260208201905092915050565b60005b83811015610b51578082015181840152602081019050610b36565b83811115610b60576000848401525b50505050565b6000610b7182610b17565b610b7b8185610b22565b9350610b8b818560208601610b33565b610b94816108b4565b840191505092915050565b600060a082019050610bb46000830188610b08565b8181036020830152610bc68187610b66565b90508181036040830152610bda8186610b66565b90508181036060830152610bee8185610b66565b9050610bfd6080830184610b08565b9695505050505050565b60008060008060008060c08789031215610c2457610c2361086a565b5b6000610c3289828a01610895565b965050602087013567ffffffffffffffff811115610c5357610c5261086f565b5b610c5f89828a016109c2565b955050604087013567ffffffffffffffff811115610c8057610c7f61086f565b5b610c8c89828a016109c2565b945050606087013567ffffffffffffffff811115610cad57610cac61086f565b5b610cb989828a016109c2565b9350506080610cca89828a01610895565b92505060a087013567ffffffffffffffff811115610ceb57610cea61086f565b5b610cf789828a016109c2565b9150509295509295509295565b7f4e487b7100000000000000000000000000000000000000000000000000000000600052602160045260246000fd5b60038110610d4457610d43610d04565b5b50565b6000819050610d5582610d33565b919050565b6000610d6582610d47565b9050919050565b610d7581610d5a565b82525050565b600060a082019050610d906000830188610b08565b8181036020830152610da28187610b66565b9050610db16040830186610b08565b610dbe6060830185610d6c565b8181036080830152610dd08184610b66565b90509695505050505050565b7f4e487b7100000000000000000000000000000000000000000000000000000000600052601160045260246000fd5b6000610e1682610874565b9150610e2183610874565b9250827fffffffffffffffffffffffffffffffffffffffffffffffffffffffffffffffff03821115610e5657610e55610ddc565b5b828201905092915050565b7f4e487b7100000000000000000000000000000000000000000000000000000000600052602260045260246000fd5b60006002820490506001821680610ea857607f821691505b602082108103610ebb57610eba610e61565b5b5091905056fea264697066735822122096a54e72efc6f26109dd7bb2f84bbacb2cf920acbc044171bdc3b7265dee41a764736f6c634300080d0033",
  "immutableReferences": {},
  "source": "\n// pragma solidity >=0.4.22 <0.9.0;\n\n// contract Donation {\n//     //enum for gender\n//     enum Sex {male, female, other}\n\n//     // struct for saving the data of patient\n//     struct patientData {\n//         uint256 uid;\n//         string name;\n//         uint256 age;\n//         Sex gender;\n//         string location;\n//     }\n\n//     //mapping to retrieve patient data stored in the blockchian\n//     mapping(uint256 => mapping(uint256 => patientData)) private pData;\n//     // Iterable variable declaration for patient data count\n//     mapping(uint256 => uint256) patientCount;\n\n//     //function to set patient data\n//     function setPatient(\n//         uint256 _uid,\n//         string memory _name,\n//         uint256 _age,\n//         Sex _gender,\n//         string memory _location\n//     ) public {\n//         patientCount[_uid] += 1;\n//         pData[_uid][patientCount[_uid]] = patientData(\n//             _uid,\n//             _name,\n//             _age,\n//             _gender,\n//             _location\n//         );\n//     }\n\n//     // function to retrieve data of patient from blockchain\n//     function getPatient(uint256 _uid, uint256 _patientCount)\n//         public\n//         view\n//         returns (\n//             uint256,\n//             string memory,\n//             uint256,\n//             Sex,\n//             string memory\n//         )\n//     {\n//         return (\n//             pData[_uid][_patientCount].uid,\n//             pData[_uid][_patientCount].name,\n//             pData[_uid][_patientCount].age,\n//             pData[_uid][_patientCount].gender,\n//             pData[_uid][_patientCount].location\n//         );\n//     }\n\n//     //mapping to retrieve Donation data stored in the blockchian\n//     mapping(uint256 => mapping(uint256 => string)) private donationData;\n//     // Iterable variable declaration for Donation data count\n//     mapping(uint256 => uint256) donationCount;\n\n//     //function to set Donaiton data\n//     function setDonationData(uint256 _uid, string memory _donationData) public {\n//         donationCount[_uid] += 1;\n//         donationData[_uid][donationCount[_uid]] = _donationData;\n//     }\n\n//     // function to retrieve Donation data from blockchain\n//     function getData(uint256 _uid, uint256 _donationCount)\n//         public\n//         view\n//         returns (string memory)\n//     {\n//         return donationData[_uid][_donationCount];\n//     }\n// }\n\n// SPDX-License-Identifier: GPL-3.0\npragma solidity >=0.4.22 <0.9.0;\n\ncontract Donation {\n    //enum for gender\n    enum Sex {male, female, other}\n\n    // struct for saving the data of patient\n    struct patientData {\n        uint256 uid;\n        string name;\n        uint256 age;\n        Sex gender;\n        string location;\n    }\n\n    //mapping to retrieve patient data stored in the blockchian\n    mapping(uint256 => mapping(uint256 => patientData)) private pData;\n    // Iterable variable declaration for patient data count\n    mapping(uint256 => uint256) patientCount;\n\n    //function to set patient data\n    function setPatient(\n        uint256 _uid,\n        string memory _name,\n        uint256 _age,\n        Sex _gender,\n        string memory _location\n    ) public {\n        patientCount[_uid] += 1;\n        pData[_uid][patientCount[_uid]] = patientData(\n            _uid,\n            _name,\n            _age,\n            _gender,\n            _location\n        );\n    }\n\n    // function to retrieve data of patient from blockchain\n    function getPatient(uint256 _uid, uint256 _patientCount)\n        public\n        view\n        returns (\n            uint256,\n            string memory,\n            uint256,\n            Sex,\n            string memory\n        )\n    {\n        return (\n            pData[_uid][_patientCount].uid,\n            pData[_uid][_patientCount].name,\n            pData[_uid][_patientCount].age,\n            pData[_uid][_patientCount].gender,\n            pData[_uid][_patientCount].location\n        );\n    }\n\n\n  struct donationData {\n        uint256 uid;\n        string name;\n        string hospital;\n        string doctor;\n        uint256 slNo;\n        string date;\n    }\n    //mapping to retrieve Donation data stored in the blockchian\n    mapping(uint256 => mapping(uint256 => donationData)) private dData;\n    // Iterable variable declaration for Donation data count\n    mapping(uint256 => uint256) donationCount;\n\n    //function to set Donaiton data\n    // function setDonationData(uint256 _uid, string memory _donationData) public {\n    //     donationCount[_uid] += 1;\n    //     donationData[_uid][donationCount[_uid]] = _donationData;\n    // }  \n    function setDonationData(\n        uint256 _uid,\n        string memory _name,\n        string memory _hospital,\n        string memory _doctor,\n        uint256 _slNo,\n        string memory _date\n    ) public {\n        donationCount[_uid] += 1;\n        dData[_uid][donationCount[_uid]] = donationData(\n            _uid,\n            _name,\n            _hospital,\n            _doctor,\n            _slNo,\n            _date\n        );\n    }\n    // function to retrieve Donation data from blockchain\n    // function getData(uint256 _uid, uint256 _donationCount)\n    //     public\n    //     view\n    //     returns (string memory)\n         function getData(uint256 _uid, uint256 _donationCount)\n        public\n        view\n        returns (uint256, string memory, string memory, string memory, uint256)\n    {\n        // return donationData[_uid][_donationCount];\n         return (\n            dData[_uid][_donationCount].uid,\n            dData[_uid][_donationCount].name,\n            dData[_uid][_donationCount].hospital,\n            dData[_uid][_donationCount].doctor,\n            dData[_uid][_donationCount].slNo\n            // dData[_uid][_donationCount].date\n        );\n    }\n    \n}",
  "sourcePath": "/home/neethu/EthLab/Express-Donation-Dapp/contracts/Donations.sol",
  "compiler": {
    "name": "solc",
    "version": "0.8.13+commit.abaa5c0e.Emscripten.clang"
  },
  "schemaVersion": "3.4.7",
  "updatedAt": "2022-09-28T15:02:27.445Z",
  "networkType": "ethereum",
  "devdoc": {
    "kind": "dev",
    "methods": {},
    "version": 1
  },
  "userdoc": {
    "kind": "user",
    "methods": {},
    "version": 1
  }
}