{
  "contractName": "Donation",
  "abi": [
    {
      "inputs": [
        {
          "internalType": "uint256",
          "name": "_uid",
          "type": "uint256"
        },
        {
          "internalType": "string",
          "name": "_name",
          "type": "string"
        },
        {
          "internalType": "uint256",
          "name": "_age",
          "type": "uint256"
        },
        {
          "internalType": "enum Donation.Sex",
          "name": "_gender",
          "type": "uint8"
        },
        {
          "internalType": "string",
          "name": "_location",
          "type": "string"
        }
      ],
      "name": "setPatient",
      "outputs": [],
      "stateMutability": "nonpayable",
      "type": "function"
    },
    {
      "inputs": [
        {
          "internalType": "uint256",
          "name": "_uid",
          "type": "uint256"
        }
      ],
      "name": "getPatient",
      "outputs": [
        {
          "internalType": "uint256",
          "name": "",
          "type": "uint256"
        },
        {
          "internalType": "string",
          "name": "",
          "type": "string"
        },
        {
          "internalType": "uint256",
          "name": "",
          "type": "uint256"
        },
        {
          "internalType": "enum Donation.Sex",
          "name": "",
          "type": "uint8"
        },
        {
          "internalType": "string",
          "name": "",
          "type": "string"
        }
      ],
      "stateMutability": "view",
      "type": "function",
      "constant": true
    },
    {
      "inputs": [
        {
          "internalType": "uint256",
          "name": "_uid",
          "type": "uint256"
        },
        {
          "internalType": "string",
          "name": "_name",
          "type": "string"
        },
        {
          "internalType": "string",
          "name": "_organ",
          "type": "string"
        },
        {
          "internalType": "string",
          "name": "_hospital",
          "type": "string"
        },
        {
          "internalType": "string",
          "name": "_doctor",
          "type": "string"
        },
        {
          "internalType": "string",
          "name": "_slNo",
          "type": "string"
        }
      ],
      "name": "setDonationData",
      "outputs": [],
      "stateMutability": "nonpayable",
      "type": "function"
    },
    {
      "inputs": [
        {
          "internalType": "uint256",
          "name": "_uid",
          "type": "uint256"
        }
      ],
      "name": "getData",
      "outputs": [
        {
          "internalType": "uint256",
          "name": "",
          "type": "uint256"
        },
        {
          "internalType": "string",
          "name": "",
          "type": "string"
        },
        {
          "internalType": "string",
          "name": "",
          "type": "string"
        },
        {
          "internalType": "string",
          "name": "",
          "type": "string"
        },
        {
          "internalType": "string",
          "name": "",
          "type": "string"
        },
        {
          "internalType": "string",
          "name": "",
          "type": "string"
        }
      ],
      "stateMutability": "view",
      "type": "function",
      "constant": true
    }
  ],
  "bytecode": "0x608060405234801561001057600080fd5b50610e92806100206000396000f3fe608060405234801561001057600080fd5b506004361061004c5760003560e01c80630178fe3f1461005157806331fa76c2146100865780637d3a6796146100a2578063f49829b3146100d6575b600080fd5b61006b600480360381019061006691906108a5565b6100f2565b60405161007d9695949392919061097a565b60405180910390f35b6100a0600480360381019061009b9190610b58565b610452565b005b6100bc60048036038101906100b791906108a5565b610525565b6040516100cd959493929190610c82565b60405180910390f35b6100f060048036038101906100eb9190610ce3565b6106d2565b005b60006060806060806060600160008881526020019081526020016000206000015460016000898152602001908152602001600020600101600160008a8152602001908152602001600020600201600160008b8152602001908152602001600020600301600160008c8152602001908152602001600020600401600160008d815260200190815260200160002060050184805461018d90610e2b565b80601f01602080910402602001604051908101604052809291908181526020018280546101b990610e2b565b80156102065780601f106101db57610100808354040283529160200191610206565b820191906000526020600020905b8154815290600101906020018083116101e957829003601f168201915b5050505050945083805461021990610e2b565b80601f016020809104026020016040519081016040528092919081815260200182805461024590610e2b565b80156102925780601f1061026757610100808354040283529160200191610292565b820191906000526020600020905b81548152906001019060200180831161027557829003601f168201915b505050505093508280546102a590610e2b565b80601f01602080910402602001604051908101604052809291908181526020018280546102d190610e2b565b801561031e5780601f106102f35761010080835404028352916020019161031e565b820191906000526020600020905b81548152906001019060200180831161030157829003601f168201915b5050505050925081805461033190610e2b565b80601f016020809104026020016040519081016040528092919081815260200182805461035d90610e2b565b80156103aa5780601f1061037f576101008083540402835291602001916103aa565b820191906000526020600020905b81548152906001019060200180831161038d57829003601f168201915b505050505091508080546103bd90610e2b565b80601f01602080910402602001604051908101604052809291908181526020018280546103e990610e2b565b80156104365780601f1061040b57610100808354040283529160200191610436565b820191906000526020600020905b81548152906001019060200180831161041957829003601f168201915b5050505050905095509550955095509550955091939550919395565b6040518060a0016040528086815260200185815260200184815260200183600281111561048257610481610c0b565b5b8152602001828152506000808781526020019081526020016000206000820151816000015560208201518160010190805190602001906104c39291906107b8565b506040820151816002015560608201518160030160006101000a81548160ff021916908360028111156104f9576104f8610c0b565b5b0217905550608082015181600401908051906020019061051a9291906107b8565b509050505050505050565b60006060600080606060008087815260200190815260200160002060000154600080888152602001908152602001600020600101600080898152602001908152602001600020600201546000808a815260200190815260200160002060030160009054906101000a900460ff166000808b81526020019081526020016000206004018380546105b390610e2b565b80601f01602080910402602001604051908101604052809291908181526020018280546105df90610e2b565b801561062c5780601f106106015761010080835404028352916020019161062c565b820191906000526020600020905b81548152906001019060200180831161060f57829003601f168201915b5050505050935080805461063f90610e2b565b80601f016020809104026020016040519081016040528092919081815260200182805461066b90610e2b565b80156106b85780601f1061068d576101008083540402835291602001916106b8565b820191906000526020600020905b81548152906001019060200180831161069b57829003601f168201915b505050505090509450945094509450945091939590929450565b6040518060c0016040528087815260200186815260200185815260200184815260200183815260200182815250600160008881526020019081526020016000206000820151816000015560208201518160010190805190602001906107389291906107b8565b5060408201518160020190805190602001906107559291906107b8565b5060608201518160030190805190602001906107729291906107b8565b50608082015181600401908051906020019061078f9291906107b8565b5060a08201518160050190805190602001906107ac9291906107b8565b50905050505050505050565b8280546107c490610e2b565b90600052602060002090601f0160209004810192826107e6576000855561082d565b82601f106107ff57805160ff191683800117855561082d565b8280016001018555821561082d579182015b8281111561082c578251825591602001919060010190610811565b5b50905061083a919061083e565b5090565b5b8082111561085757600081600090555060010161083f565b5090565b6000604051905090565b600080fd5b600080fd5b6000819050919050565b6108828161086f565b811461088d57600080fd5b50565b60008135905061089f81610879565b92915050565b6000602082840312156108bb576108ba610865565b5b60006108c984828501610890565b91505092915050565b6108db8161086f565b82525050565b600081519050919050565b600082825260208201905092915050565b60005b8381101561091b578082015181840152602081019050610900565b8381111561092a576000848401525b50505050565b6000601f19601f8301169050919050565b600061094c826108e1565b61095681856108ec565b93506109668185602086016108fd565b61096f81610930565b840191505092915050565b600060c08201905061098f60008301896108d2565b81810360208301526109a18188610941565b905081810360408301526109b58187610941565b905081810360608301526109c98186610941565b905081810360808301526109dd8185610941565b905081810360a08301526109f18184610941565b9050979650505050505050565b600080fd5b600080fd5b7f4e487b7100000000000000000000000000000000000000000000000000000000600052604160045260246000fd5b610a4082610930565b810181811067ffffffffffffffff82111715610a5f57610a5e610a08565b5b80604052505050565b6000610a7261085b565b9050610a7e8282610a37565b919050565b600067ffffffffffffffff821115610a9e57610a9d610a08565b5b610aa782610930565b9050602081019050919050565b82818337600083830152505050565b6000610ad6610ad184610a83565b610a68565b905082815260208101848484011115610af257610af1610a03565b5b610afd848285610ab4565b509392505050565b600082601f830112610b1a57610b196109fe565b5b8135610b2a848260208601610ac3565b91505092915050565b60038110610b4057600080fd5b50565b600081359050610b5281610b33565b92915050565b600080600080600060a08688031215610b7457610b73610865565b5b6000610b8288828901610890565b955050602086013567ffffffffffffffff811115610ba357610ba261086a565b5b610baf88828901610b05565b9450506040610bc088828901610890565b9350506060610bd188828901610b43565b925050608086013567ffffffffffffffff811115610bf257610bf161086a565b5b610bfe88828901610b05565b9150509295509295909350565b7f4e487b7100000000000000000000000000000000000000000000000000000000600052602160045260246000fd5b60038110610c4b57610c4a610c0b565b5b50565b6000819050610c5c82610c3a565b919050565b6000610c6c82610c4e565b9050919050565b610c7c81610c61565b82525050565b600060a082019050610c9760008301886108d2565b8181036020830152610ca98187610941565b9050610cb860408301866108d2565b610cc56060830185610c73565b8181036080830152610cd78184610941565b90509695505050505050565b60008060008060008060c08789031215610d0057610cff610865565b5b6000610d0e89828a01610890565b965050602087013567ffffffffffffffff811115610d2f57610d2e61086a565b5b610d3b89828a01610b05565b955050604087013567ffffffffffffffff811115610d5c57610d5b61086a565b5b610d6889828a01610b05565b945050606087013567ffffffffffffffff811115610d8957610d8861086a565b5b610d9589828a01610b05565b935050608087013567ffffffffffffffff811115610db657610db561086a565b5b610dc289828a01610b05565b92505060a087013567ffffffffffffffff811115610de357610de261086a565b5b610def89828a01610b05565b9150509295509295509295565b7f4e487b7100000000000000000000000000000000000000000000000000000000600052602260045260246000fd5b60006002820490506001821680610e4357607f821691505b602082108103610e5657610e55610dfc565b5b5091905056fea264697066735822122097c7a0f618e217fb5281a115c55595035b7643c868546d89e2352f569ab882cb64736f6c634300080d0033",
  "immutableReferences": {},
  "source": "\n\n// SPDX-License-Identifier: GPL-3.0\npragma solidity >=0.4.22 <0.9.0;\n\ncontract Donation {\n    //enum for gender\n    enum Sex {male, female, other}\n\n    // struct for saving the data of patient\n    struct patientData {\n        uint256 uid;\n        string name;\n        uint256 age;\n        Sex gender;\n        string location;\n    }\n\n    //mapping to retrieve patient data stored in the blockchian\n    mapping(uint256 => patientData) private pData;\n    // Iterable variable declaration for patient data count\n    \n\n    //function to set patient data\n    function setPatient(\n        uint256 _uid,\n        string memory _name,\n        uint256 _age,\n        Sex _gender,\n        string memory _location\n    ) \n      public \n    {      \n      pData[_uid] = patientData (\n          _uid, \n          _name, \n          _age, \n          _gender,\n          _location\n      );\n    \n    }\n    // function to retrieve data of patient from blockchain\n    function getPatient(uint256 _uid)\n        public\n        view\n        returns (\n            uint256,\n            string memory,\n            uint256,\n            Sex,\n            string memory\n        )\n    {\n        return (\n            pData[_uid].uid,\n            pData[_uid].name,\n            pData[_uid].age,\n            pData[_uid].gender,\n            pData[_uid].location\n        );\n    }\n\n\n  struct donationData {\n        uint256 uid;\n        string name;\n        string organ;\n        string hospital;\n       \n        string doctor;\n        string slNo;\n        \n    }\n    //mapping to retrieve Donation data stored in the blockchian\n    mapping(uint256 => donationData) private dData;\n \n\n    //function to set Donaiton data\n   \n    function setDonationData(\n        uint256 _uid,\n        string memory _name,\n        \n        string memory _organ,\n        string memory _hospital,\n        string memory _doctor,\n        string memory _slNo\n        \n    ) public {\n       \n        dData[_uid] = donationData(\n            _uid,\n            _name,\n            _organ,\n            _hospital,\n            _doctor,\n            _slNo\n        );\n    }\n    // function to retrieve Donation data from blockchain\n   \n         function getData(uint256 _uid)\n        public\n        view\n        returns (uint256, string memory, string memory, string memory, string memory, string memory)\n    {\n        // return donationData[_uid][_donationCount];\n         return (\n            dData[_uid].uid,\n            dData[_uid].name,\n            dData[_uid].organ,\n            dData[_uid].hospital,\n           \n            dData[_uid].doctor,\n            dData[_uid].slNo\n        );\n    }\n    \n}",
  "sourcePath": "/home/neethu/EthLab/Express-Donation-Dapp/contracts/Donations.sol",
  "compiler": {
    "name": "solc",
    "version": "0.8.13+commit.abaa5c0e.Emscripten.clang"
  },
  "schemaVersion": "3.4.7",
  "updatedAt": "2022-10-13T13:31:16.166Z",
  "networkType": "ethereum",
  "devdoc": {
    "kind": "dev",
    "methods": {},
    "version": 1
  },
  "userdoc": {
    "kind": "user",
    "methods": {},
    "version": 1
  }
}